{
  "_format": "hh-sol-artifact-1",
  "contractName": "FileStorage",
  "sourceName": "contracts/FileStorage.sol",
  "abi": [
    {
      "anonymous": false,
      "inputs": [
        {
          "indexed": true,
          "internalType": "address",
          "name": "owner",
          "type": "address"
        },
        {
          "indexed": false,
          "internalType": "string",
          "name": "fileHash",
          "type": "string"
        },
        {
          "indexed": false,
          "internalType": "bytes",
          "name": "signature",
          "type": "bytes"
        },
        {
          "indexed": false,
          "internalType": "uint256",
          "name": "timestamp",
          "type": "uint256"
        }
      ],
      "name": "FileStored",
      "type": "event"
    },
    {
      "inputs": [
        {
          "internalType": "string",
          "name": "_fileHash",
          "type": "string"
        }
      ],
      "name": "getFileDetails",
      "outputs": [
        {
          "internalType": "address",
          "name": "owner",
          "type": "address"
        },
        {
          "internalType": "bytes",
          "name": "signature",
          "type": "bytes"
        },
        {
          "internalType": "uint256",
          "name": "timestamp",
          "type": "uint256"
        }
      ],
      "stateMutability": "view",
      "type": "function"
    },
    {
      "inputs": [
        {
          "internalType": "string",
          "name": "_fileHash",
          "type": "string"
        },
        {
          "internalType": "bytes",
          "name": "_signature",
          "type": "bytes"
        }
      ],
      "name": "storeFileHash",
      "outputs": [],
      "stateMutability": "nonpayable",
      "type": "function"
    },
    {
      "inputs": [
        {
          "internalType": "string",
          "name": "_fileHash",
          "type": "string"
        }
      ],
      "name": "verifyFile",
      "outputs": [
        {
          "internalType": "address",
          "name": "owner",
          "type": "address"
        },
        {
          "internalType": "bool",
          "name": "exists",
          "type": "bool"
        }
      ],
      "stateMutability": "view",
      "type": "function"
    }
  ],
  "bytecode": "0x608060405234801561001057600080fd5b50610f91806100206000396000f3fe608060405234801561001057600080fd5b50600436106100415760003560e01c80630495750514610046578063b027102314610078578063ee27cf2e146100a9575b600080fd5b610060600480360381019061005b9190610662565b6100c5565b60405161006f93929190610784565b60405180910390f35b610092600480360381019061008d9190610662565b610263565b6040516100a09291906107dd565b60405180910390f35b6100c360048036038101906100be91906108a7565b6102e7565b005b6000606060008073ffffffffffffffffffffffffffffffffffffffff166000856040516100f29190610966565b908152602001604051809103902060000160009054906101000a900473ffffffffffffffffffffffffffffffffffffffff1673ffffffffffffffffffffffffffffffffffffffff160361017a576040517f08c379a0000000000000000000000000000000000000000000000000000000008152600401610171906109da565b60405180910390fd5b6000808560405161018b9190610966565b908152602001604051809103902090508060000160009054906101000a900473ffffffffffffffffffffffffffffffffffffffff168160020182600301548180546101d590610a29565b80601f016020809104026020016040519081016040528092919081815260200182805461020190610a29565b801561024e5780601f106102235761010080835404028352916020019161024e565b820191906000526020600020905b81548152906001019060200180831161023157829003601f168201915b50505050509150935093509350509193909250565b600080600080846040516102779190610966565b908152602001604051809103902090508060000160009054906101000a900473ffffffffffffffffffffffffffffffffffffffff169250600073ffffffffffffffffffffffffffffffffffffffff168373ffffffffffffffffffffffffffffffffffffffff161415915050915091565b81600081511161032c576040517f08c379a000000000000000000000000000000000000000000000000000000000815260040161032390610aa6565b60405180910390fd5b600073ffffffffffffffffffffffffffffffffffffffff166000846040516103549190610966565b908152602001604051809103902060000160009054906101000a900473ffffffffffffffffffffffffffffffffffffffff1673ffffffffffffffffffffffffffffffffffffffff16146103dc576040517f08c379a00000000000000000000000000000000000000000000000000000000081526004016103d390610b12565b60405180910390fd5b60405180608001604052803373ffffffffffffffffffffffffffffffffffffffff168152602001848152602001838152602001428152506000846040516104239190610966565b908152602001604051809103902060008201518160000160006101000a81548173ffffffffffffffffffffffffffffffffffffffff021916908373ffffffffffffffffffffffffffffffffffffffff160217905550602082015181600101908161048d9190610cde565b5060408201518160020190816104a39190610e0b565b50606082015181600301559050503373ffffffffffffffffffffffffffffffffffffffff167f162e2f817995af523eb23d283329cd7f62032094a7c53d76492668f587986bf18484426040516104fb93929190610f16565b60405180910390a2505050565b6000604051905090565b600080fd5b600080fd5b600080fd5b600080fd5b6000601f19601f8301169050919050565b7f4e487b7100000000000000000000000000000000000000000000000000000000600052604160045260246000fd5b61056f82610526565b810181811067ffffffffffffffff8211171561058e5761058d610537565b5b80604052505050565b60006105a1610508565b90506105ad8282610566565b919050565b600067ffffffffffffffff8211156105cd576105cc610537565b5b6105d682610526565b9050602081019050919050565b82818337600083830152505050565b6000610605610600846105b2565b610597565b90508281526020810184848401111561062157610620610521565b5b61062c8482856105e3565b509392505050565b600082601f8301126106495761064861051c565b5b81356106598482602086016105f2565b91505092915050565b60006020828403121561067857610677610512565b5b600082013567ffffffffffffffff81111561069657610695610517565b5b6106a284828501610634565b91505092915050565b600073ffffffffffffffffffffffffffffffffffffffff82169050919050565b60006106d6826106ab565b9050919050565b6106e6816106cb565b82525050565b600081519050919050565b600082825260208201905092915050565b60005b8381101561072657808201518184015260208101905061070b565b60008484015250505050565b600061073d826106ec565b61074781856106f7565b9350610757818560208601610708565b61076081610526565b840191505092915050565b6000819050919050565b61077e8161076b565b82525050565b600060608201905061079960008301866106dd565b81810360208301526107ab8185610732565b90506107ba6040830184610775565b949350505050565b60008115159050919050565b6107d7816107c2565b82525050565b60006040820190506107f260008301856106dd565b6107ff60208301846107ce565b9392505050565b600067ffffffffffffffff82111561082157610820610537565b5b61082a82610526565b9050602081019050919050565b600061084a61084584610806565b610597565b90508281526020810184848401111561086657610865610521565b5b6108718482856105e3565b509392505050565b600082601f83011261088e5761088d61051c565b5b813561089e848260208601610837565b91505092915050565b600080604083850312156108be576108bd610512565b5b600083013567ffffffffffffffff8111156108dc576108db610517565b5b6108e885828601610634565b925050602083013567ffffffffffffffff81111561090957610908610517565b5b61091585828601610879565b9150509250929050565b600081519050919050565b600081905092915050565b60006109408261091f565b61094a818561092a565b935061095a818560208601610708565b80840191505092915050565b60006109728284610935565b915081905092915050565b600082825260208201905092915050565b7f46696c65206e6f7420666f756e64210000000000000000000000000000000000600082015250565b60006109c4600f8361097d565b91506109cf8261098e565b602082019050919050565b600060208201905081810360008301526109f3816109b7565b9050919050565b7f4e487b7100000000000000000000000000000000000000000000000000000000600052602260045260246000fd5b60006002820490506001821680610a4157607f821691505b602082108103610a5457610a536109fa565b5b50919050565b7f46696c6520686173682063616e6e6f7420626520656d70747921000000000000600082015250565b6000610a90601a8361097d565b9150610a9b82610a5a565b602082019050919050565b60006020820190508181036000830152610abf81610a83565b9050919050565b7f46696c6520616c72656164792065786973747321000000000000000000000000600082015250565b6000610afc60148361097d565b9150610b0782610ac6565b602082019050919050565b60006020820190508181036000830152610b2b81610aef565b9050919050565b60008190508160005260206000209050919050565b60006020601f8301049050919050565b600082821b905092915050565b600060088302610b947fffffffffffffffffffffffffffffffffffffffffffffffffffffffffffffffff82610b57565b610b9e8683610b57565b95508019841693508086168417925050509392505050565b6000819050919050565b6000610bdb610bd6610bd18461076b565b610bb6565b61076b565b9050919050565b6000819050919050565b610bf583610bc0565b610c09610c0182610be2565b848454610b64565b825550505050565b600090565b610c1e610c11565b610c29818484610bec565b505050565b5b81811015610c4d57610c42600082610c16565b600181019050610c2f565b5050565b601f821115610c9257610c6381610b32565b610c6c84610b47565b81016020851015610c7b578190505b610c8f610c8785610b47565b830182610c2e565b50505b505050565b600082821c905092915050565b6000610cb560001984600802610c97565b1980831691505092915050565b6000610cce8383610ca4565b9150826002028217905092915050565b610ce78261091f565b67ffffffffffffffff811115610d0057610cff610537565b5b610d0a8254610a29565b610d15828285610c51565b600060209050601f831160018114610d485760008415610d36578287015190505b610d408582610cc2565b865550610da8565b601f198416610d5686610b32565b60005b82811015610d7e57848901518255600182019150602085019450602081019050610d59565b86831015610d9b5784890151610d97601f891682610ca4565b8355505b6001600288020188555050505b505050505050565b60008190508160005260206000209050919050565b601f821115610e0657610dd781610db0565b610de084610b47565b81016020851015610def578190505b610e03610dfb85610b47565b830182610c2e565b50505b505050565b610e14826106ec565b67ffffffffffffffff811115610e2d57610e2c610537565b5b610e378254610a29565b610e42828285610dc5565b600060209050601f831160018114610e755760008415610e63578287015190505b610e6d8582610cc2565b865550610ed5565b601f198416610e8386610db0565b60005b82811015610eab57848901518255600182019150602085019450602081019050610e86565b86831015610ec85784890151610ec4601f891682610ca4565b8355505b6001600288020188555050505b505050505050565b6000610ee88261091f565b610ef2818561097d565b9350610f02818560208601610708565b610f0b81610526565b840191505092915050565b60006060820190508181036000830152610f308186610edd565b90508181036020830152610f448185610732565b9050610f536040830184610775565b94935050505056fea2646970667358221220dc8668448eeebf6aef4b39d781444cf7b9dcd8bf7e7c692a958ef3c89082091a64736f6c63430008140033",
  "linkReferences": {},
  "deployedLinkReferences": {}
}