{
  "_format": "hh-sol-artifact-1",
  "contractName": "FileStorage",
  "sourceName": "contracts/FileStorage.sol",
  "abi": [
    {
      "anonymous": false,
      "inputs": [
        {
          "indexed": true,
          "internalType": "address",
          "name": "owner",
          "type": "address"
        },
        {
          "indexed": false,
          "internalType": "string",
          "name": "fileHash",
          "type": "string"
        },
        {
          "indexed": false,
          "internalType": "bytes",
          "name": "signature",
          "type": "bytes"
        }
      ],
      "name": "FileStored",
      "type": "event"
    },
    {
      "inputs": [
        {
          "internalType": "string",
          "name": "_fileHash",
          "type": "string"
        }
      ],
      "name": "getFileDetails",
      "outputs": [
        {
          "internalType": "address",
          "name": "owner",
          "type": "address"
        },
        {
          "internalType": "bytes",
          "name": "signature",
          "type": "bytes"
        }
      ],
      "stateMutability": "view",
      "type": "function"
    },
    {
      "inputs": [
        {
          "internalType": "string",
          "name": "_fileHash",
          "type": "string"
        },
        {
          "internalType": "bytes",
          "name": "_signature",
          "type": "bytes"
        }
      ],
      "name": "storeFileHash",
      "outputs": [],
      "stateMutability": "nonpayable",
      "type": "function"
    },
    {
      "inputs": [
        {
          "internalType": "string",
          "name": "_fileHash",
          "type": "string"
        }
      ],
      "name": "verifyFile",
      "outputs": [
        {
          "internalType": "address",
          "name": "owner",
          "type": "address"
        },
        {
          "internalType": "bool",
          "name": "exists",
          "type": "bool"
        }
      ],
      "stateMutability": "view",
      "type": "function"
    }
  ],
  "bytecode": "0x608060405234801561001057600080fd5b50610f02806100206000396000f3fe608060405234801561001057600080fd5b50600436106100415760003560e01c80630495750514610046578063b027102314610077578063ee27cf2e146100a8575b600080fd5b610060600480360381019061005b919061066a565b6100c4565b60405161006e929190610773565b60405180910390f35b610091600480360381019061008c919061066a565b610282565b60405161009f9291906107be565b60405180910390f35b6100c260048036038101906100bd9190610888565b610301565b005b60006060600080846040516100d99190610947565b90815260200160405180910390206040518060600160405290816000820160009054906101000a900473ffffffffffffffffffffffffffffffffffffffff1673ffffffffffffffffffffffffffffffffffffffff1673ffffffffffffffffffffffffffffffffffffffff1681526020016001820180546101589061098d565b80601f01602080910402602001604051908101604052809291908181526020018280546101849061098d565b80156101d15780601f106101a6576101008083540402835291602001916101d1565b820191906000526020600020905b8154815290600101906020018083116101b457829003601f168201915b505050505081526020016002820180546101ea9061098d565b80601f01602080910402602001604051908101604052809291908181526020018280546102169061098d565b80156102635780601f1061023857610100808354040283529160200191610263565b820191906000526020600020905b81548152906001019060200180831161024657829003601f168201915b5050505050815250509050806000015181604001519250925050915091565b6000806000836040516102959190610947565b908152602001604051809103902060000160009054906101000a900473ffffffffffffffffffffffffffffffffffffffff169150600073ffffffffffffffffffffffffffffffffffffffff168273ffffffffffffffffffffffffffffffffffffffff1614159050915091565b816000815111610346576040517f08c379a000000000000000000000000000000000000000000000000000000000815260040161033d90610a1b565b60405180910390fd5b600073ffffffffffffffffffffffffffffffffffffffff1660008460405161036e9190610947565b908152602001604051809103902060000160009054906101000a900473ffffffffffffffffffffffffffffffffffffffff1673ffffffffffffffffffffffffffffffffffffffff16146103f6576040517f08c379a00000000000000000000000000000000000000000000000000000000081526004016103ed90610a87565b60405180910390fd5b60405180606001604052803373ffffffffffffffffffffffffffffffffffffffff168152602001848152602001838152506000846040516104379190610947565b908152602001604051809103902060008201518160000160006101000a81548173ffffffffffffffffffffffffffffffffffffffff021916908373ffffffffffffffffffffffffffffffffffffffff16021790555060208201518160010190816104a19190610c5d565b5060408201518160020190816104b79190610d8a565b509050503373ffffffffffffffffffffffffffffffffffffffff167f1dde6dcbbb78f96c807dc608506efce3f6a33db2f7299bd59f6b9c0e590255508484604051610503929190610e95565b60405180910390a2505050565b6000604051905090565b600080fd5b600080fd5b600080fd5b600080fd5b6000601f19601f8301169050919050565b7f4e487b7100000000000000000000000000000000000000000000000000000000600052604160045260246000fd5b6105778261052e565b810181811067ffffffffffffffff821117156105965761059561053f565b5b80604052505050565b60006105a9610510565b90506105b5828261056e565b919050565b600067ffffffffffffffff8211156105d5576105d461053f565b5b6105de8261052e565b9050602081019050919050565b82818337600083830152505050565b600061060d610608846105ba565b61059f565b90508281526020810184848401111561062957610628610529565b5b6106348482856105eb565b509392505050565b600082601f83011261065157610650610524565b5b81356106618482602086016105fa565b91505092915050565b6000602082840312156106805761067f61051a565b5b600082013567ffffffffffffffff81111561069e5761069d61051f565b5b6106aa8482850161063c565b91505092915050565b600073ffffffffffffffffffffffffffffffffffffffff82169050919050565b60006106de826106b3565b9050919050565b6106ee816106d3565b82525050565b600081519050919050565b600082825260208201905092915050565b60005b8381101561072e578082015181840152602081019050610713565b60008484015250505050565b6000610745826106f4565b61074f81856106ff565b935061075f818560208601610710565b6107688161052e565b840191505092915050565b600060408201905061078860008301856106e5565b818103602083015261079a818461073a565b90509392505050565b60008115159050919050565b6107b8816107a3565b82525050565b60006040820190506107d360008301856106e5565b6107e060208301846107af565b9392505050565b600067ffffffffffffffff8211156108025761080161053f565b5b61080b8261052e565b9050602081019050919050565b600061082b610826846107e7565b61059f565b90508281526020810184848401111561084757610846610529565b5b6108528482856105eb565b509392505050565b600082601f83011261086f5761086e610524565b5b813561087f848260208601610818565b91505092915050565b6000806040838503121561089f5761089e61051a565b5b600083013567ffffffffffffffff8111156108bd576108bc61051f565b5b6108c98582860161063c565b925050602083013567ffffffffffffffff8111156108ea576108e961051f565b5b6108f68582860161085a565b9150509250929050565b600081519050919050565b600081905092915050565b600061092182610900565b61092b818561090b565b935061093b818560208601610710565b80840191505092915050565b60006109538284610916565b915081905092915050565b7f4e487b7100000000000000000000000000000000000000000000000000000000600052602260045260246000fd5b600060028204905060018216806109a557607f821691505b6020821081036109b8576109b761095e565b5b50919050565b600082825260208201905092915050565b7f46696c6520686173682063616e6e6f7420626520656d70747921000000000000600082015250565b6000610a05601a836109be565b9150610a10826109cf565b602082019050919050565b60006020820190508181036000830152610a34816109f8565b9050919050565b7f46696c6520616c72656164792065786973747321000000000000000000000000600082015250565b6000610a716014836109be565b9150610a7c82610a3b565b602082019050919050565b60006020820190508181036000830152610aa081610a64565b9050919050565b60008190508160005260206000209050919050565b60006020601f8301049050919050565b600082821b905092915050565b600060088302610b097fffffffffffffffffffffffffffffffffffffffffffffffffffffffffffffffff82610acc565b610b138683610acc565b95508019841693508086168417925050509392505050565b6000819050919050565b6000819050919050565b6000610b5a610b55610b5084610b2b565b610b35565b610b2b565b9050919050565b6000819050919050565b610b7483610b3f565b610b88610b8082610b61565b848454610ad9565b825550505050565b600090565b610b9d610b90565b610ba8818484610b6b565b505050565b5b81811015610bcc57610bc1600082610b95565b600181019050610bae565b5050565b601f821115610c1157610be281610aa7565b610beb84610abc565b81016020851015610bfa578190505b610c0e610c0685610abc565b830182610bad565b50505b505050565b600082821c905092915050565b6000610c3460001984600802610c16565b1980831691505092915050565b6000610c4d8383610c23565b9150826002028217905092915050565b610c6682610900565b67ffffffffffffffff811115610c7f57610c7e61053f565b5b610c89825461098d565b610c94828285610bd0565b600060209050601f831160018114610cc75760008415610cb5578287015190505b610cbf8582610c41565b865550610d27565b601f198416610cd586610aa7565b60005b82811015610cfd57848901518255600182019150602085019450602081019050610cd8565b86831015610d1a5784890151610d16601f891682610c23565b8355505b6001600288020188555050505b505050505050565b60008190508160005260206000209050919050565b601f821115610d8557610d5681610d2f565b610d5f84610abc565b81016020851015610d6e578190505b610d82610d7a85610abc565b830182610bad565b50505b505050565b610d93826106f4565b67ffffffffffffffff811115610dac57610dab61053f565b5b610db6825461098d565b610dc1828285610d44565b600060209050601f831160018114610df45760008415610de2578287015190505b610dec8582610c41565b865550610e54565b601f198416610e0286610d2f565b60005b82811015610e2a57848901518255600182019150602085019450602081019050610e05565b86831015610e475784890151610e43601f891682610c23565b8355505b6001600288020188555050505b505050505050565b6000610e6782610900565b610e7181856109be565b9350610e81818560208601610710565b610e8a8161052e565b840191505092915050565b60006040820190508181036000830152610eaf8185610e5c565b90508181036020830152610ec3818461073a565b9050939250505056fea2646970667358221220ff62d32411c307655fa7b7c37bb7c13e09d10cb5d24d9bf6943e42a12889e41e64736f6c63430008140033",
  "linkReferences": {},
  "deployedLinkReferences": {}
}