{
  "_format": "hh-sol-artifact-1",
  "contractName": "FileStorage",
  "sourceName": "contracts/FileStorage.sol",
  "abi": [
    {
      "anonymous": false,
      "inputs": [
        {
          "indexed": true,
          "internalType": "address",
          "name": "owner",
          "type": "address"
        },
        {
          "indexed": false,
          "internalType": "string",
          "name": "fileHash",
          "type": "string"
        }
      ],
      "name": "FileStored",
      "type": "event"
    },
    {
      "inputs": [
        {
          "internalType": "string",
          "name": "_fileHash",
          "type": "string"
        }
      ],
      "name": "getSignature",
      "outputs": [
        {
          "internalType": "bytes",
          "name": "",
          "type": "bytes"
        }
      ],
      "stateMutability": "view",
      "type": "function"
    },
    {
      "inputs": [
        {
          "internalType": "string",
          "name": "_fileHash",
          "type": "string"
        },
        {
          "internalType": "bytes",
          "name": "_signature",
          "type": "bytes"
        }
      ],
      "name": "storeFileHash",
      "outputs": [],
      "stateMutability": "nonpayable",
      "type": "function"
    },
    {
      "inputs": [
        {
          "internalType": "string",
          "name": "_fileHash",
          "type": "string"
        },
        {
          "internalType": "address",
          "name": "_owner",
          "type": "address"
        }
      ],
      "name": "verifyFile",
      "outputs": [
        {
          "internalType": "bool",
          "name": "",
          "type": "bool"
        }
      ],
      "stateMutability": "view",
      "type": "function"
    }
  ],
  "bytecode": "0x608060405234801561001057600080fd5b50610eee806100206000396000f3fe608060405234801561001057600080fd5b50600436106100415760003560e01c80635e95928714610046578063ee27cf2e14610076578063eea9211c14610092575b600080fd5b610060600480360381019061005b919061067a565b6100c2565b60405161006d9190610742565b60405180910390f35b610090600480360381019061008b9190610805565b610175565b005b6100ac60048036038101906100a791906108db565b61033c565b6040516100b99190610952565b60405180910390f35b60606000826040516100d491906109b4565b908152602001604051809103902060020180546100f0906109fa565b80601f016020809104026020016040519081016040528092919081815260200182805461011c906109fa565b80156101695780601f1061013e57610100808354040283529160200191610169565b820191906000526020600020905b81548152906001019060200180831161014c57829003601f168201915b50505050509050919050565b600073ffffffffffffffffffffffffffffffffffffffff1660008360405161019d91906109b4565b908152602001604051809103902060000160009054906101000a900473ffffffffffffffffffffffffffffffffffffffff1673ffffffffffffffffffffffffffffffffffffffff1614610225576040517f08c379a000000000000000000000000000000000000000000000000000000000815260040161021c90610a88565b60405180910390fd5b60405180606001604052803373ffffffffffffffffffffffffffffffffffffffff1681526020018381526020018281525060008360405161026691906109b4565b908152602001604051809103902060008201518160000160006101000a81548173ffffffffffffffffffffffffffffffffffffffff021916908373ffffffffffffffffffffffffffffffffffffffff16021790555060208201518160010190816102d09190610c5e565b5060408201518160020190816102e69190610d8b565b509050503373ffffffffffffffffffffffffffffffffffffffff167f794ce8beab181d20ff474f00e6251d0a36d0c1f89797ba1b484a0be53e0dcbf1836040516103309190610e96565b60405180910390a25050565b60008060008460405161034f91906109b4565b90815260200160405180910390206040518060600160405290816000820160009054906101000a900473ffffffffffffffffffffffffffffffffffffffff1673ffffffffffffffffffffffffffffffffffffffff1673ffffffffffffffffffffffffffffffffffffffff1681526020016001820180546103ce906109fa565b80601f01602080910402602001604051908101604052809291908181526020018280546103fa906109fa565b80156104475780601f1061041c57610100808354040283529160200191610447565b820191906000526020600020905b81548152906001019060200180831161042a57829003601f168201915b50505050508152602001600282018054610460906109fa565b80601f016020809104026020016040519081016040528092919081815260200182805461048c906109fa565b80156104d95780601f106104ae576101008083540402835291602001916104d9565b820191906000526020600020905b8154815290600101906020018083116104bc57829003601f168201915b50505050508152505090508273ffffffffffffffffffffffffffffffffffffffff16816000015173ffffffffffffffffffffffffffffffffffffffff161491505092915050565b6000604051905090565b600080fd5b600080fd5b600080fd5b600080fd5b6000601f19601f8301169050919050565b7f4e487b7100000000000000000000000000000000000000000000000000000000600052604160045260246000fd5b6105878261053e565b810181811067ffffffffffffffff821117156105a6576105a561054f565b5b80604052505050565b60006105b9610520565b90506105c5828261057e565b919050565b600067ffffffffffffffff8211156105e5576105e461054f565b5b6105ee8261053e565b9050602081019050919050565b82818337600083830152505050565b600061061d610618846105ca565b6105af565b90508281526020810184848401111561063957610638610539565b5b6106448482856105fb565b509392505050565b600082601f83011261066157610660610534565b5b813561067184826020860161060a565b91505092915050565b6000602082840312156106905761068f61052a565b5b600082013567ffffffffffffffff8111156106ae576106ad61052f565b5b6106ba8482850161064c565b91505092915050565b600081519050919050565b600082825260208201905092915050565b60005b838110156106fd5780820151818401526020810190506106e2565b60008484015250505050565b6000610714826106c3565b61071e81856106ce565b935061072e8185602086016106df565b6107378161053e565b840191505092915050565b6000602082019050818103600083015261075c8184610709565b905092915050565b600067ffffffffffffffff82111561077f5761077e61054f565b5b6107888261053e565b9050602081019050919050565b60006107a86107a384610764565b6105af565b9050828152602081018484840111156107c4576107c3610539565b5b6107cf8482856105fb565b509392505050565b600082601f8301126107ec576107eb610534565b5b81356107fc848260208601610795565b91505092915050565b6000806040838503121561081c5761081b61052a565b5b600083013567ffffffffffffffff81111561083a5761083961052f565b5b6108468582860161064c565b925050602083013567ffffffffffffffff8111156108675761086661052f565b5b610873858286016107d7565b9150509250929050565b600073ffffffffffffffffffffffffffffffffffffffff82169050919050565b60006108a88261087d565b9050919050565b6108b88161089d565b81146108c357600080fd5b50565b6000813590506108d5816108af565b92915050565b600080604083850312156108f2576108f161052a565b5b600083013567ffffffffffffffff8111156109105761090f61052f565b5b61091c8582860161064c565b925050602061092d858286016108c6565b9150509250929050565b60008115159050919050565b61094c81610937565b82525050565b60006020820190506109676000830184610943565b92915050565b600081519050919050565b600081905092915050565b600061098e8261096d565b6109988185610978565b93506109a88185602086016106df565b80840191505092915050565b60006109c08284610983565b915081905092915050565b7f4e487b7100000000000000000000000000000000000000000000000000000000600052602260045260246000fd5b60006002820490506001821680610a1257607f821691505b602082108103610a2557610a246109cb565b5b50919050565b600082825260208201905092915050565b7f46696c6520616c72656164792065786973747321000000000000000000000000600082015250565b6000610a72601483610a2b565b9150610a7d82610a3c565b602082019050919050565b60006020820190508181036000830152610aa181610a65565b9050919050565b60008190508160005260206000209050919050565b60006020601f8301049050919050565b600082821b905092915050565b600060088302610b0a7fffffffffffffffffffffffffffffffffffffffffffffffffffffffffffffffff82610acd565b610b148683610acd565b95508019841693508086168417925050509392505050565b6000819050919050565b6000819050919050565b6000610b5b610b56610b5184610b2c565b610b36565b610b2c565b9050919050565b6000819050919050565b610b7583610b40565b610b89610b8182610b62565b848454610ada565b825550505050565b600090565b610b9e610b91565b610ba9818484610b6c565b505050565b5b81811015610bcd57610bc2600082610b96565b600181019050610baf565b5050565b601f821115610c1257610be381610aa8565b610bec84610abd565b81016020851015610bfb578190505b610c0f610c0785610abd565b830182610bae565b50505b505050565b600082821c905092915050565b6000610c3560001984600802610c17565b1980831691505092915050565b6000610c4e8383610c24565b9150826002028217905092915050565b610c678261096d565b67ffffffffffffffff811115610c8057610c7f61054f565b5b610c8a82546109fa565b610c95828285610bd1565b600060209050601f831160018114610cc85760008415610cb6578287015190505b610cc08582610c42565b865550610d28565b601f198416610cd686610aa8565b60005b82811015610cfe57848901518255600182019150602085019450602081019050610cd9565b86831015610d1b5784890151610d17601f891682610c24565b8355505b6001600288020188555050505b505050505050565b60008190508160005260206000209050919050565b601f821115610d8657610d5781610d30565b610d6084610abd565b81016020851015610d6f578190505b610d83610d7b85610abd565b830182610bae565b50505b505050565b610d94826106c3565b67ffffffffffffffff811115610dad57610dac61054f565b5b610db782546109fa565b610dc2828285610d45565b600060209050601f831160018114610df55760008415610de3578287015190505b610ded8582610c42565b865550610e55565b601f198416610e0386610d30565b60005b82811015610e2b57848901518255600182019150602085019450602081019050610e06565b86831015610e485784890151610e44601f891682610c24565b8355505b6001600288020188555050505b505050505050565b6000610e688261096d565b610e728185610a2b565b9350610e828185602086016106df565b610e8b8161053e565b840191505092915050565b60006020820190508181036000830152610eb08184610e5d565b90509291505056fea2646970667358221220051340a82b26e859584769249a25a523c89b648d0aa858a1b512e8e3c3eb5c6a64736f6c63430008140033",
  "linkReferences": {},
  "deployedLinkReferences": {}
}